:020000040000FA
:060000000A128A1110280B
:10000800FE00030EF0000A08F100831203137F08B4
:10001800F2000A128A113A280A128A111328830157
:100028000A128A111728C030831603138700C030BC
:10003800831203138700831603178901563083162A
:1000480003138100E0308B00831203138101063013
:100058009200FF3083160313920083120313950155
:100068000C30970036280A128A1110280B1D3D28DB
:100078003E284E280B118101071B43284428482895
:100088000130FF007F089507871B4B284C284E2816
:10009800013095027208FF0071088A00700E830013
:0600A800FE0E7E0E0900B1
:04400E00F43FFF3F3D
:00000001FF
